{
  "_format": "hh-sol-artifact-1",
  "contractName": "Event",
  "sourceName": "contracts/Event.sol",
  "abi": [
    {
      "inputs": [
        {
          "internalType": "uint256",
          "name": "_ticketPrice",
          "type": "uint256"
        },
        {
          "internalType": "uint16",
          "name": "_ticketsAvailable",
          "type": "uint16"
        },
        {
          "internalType": "address",
          "name": "_manager",
          "type": "address"
        }
      ],
      "stateMutability": "nonpayable",
      "type": "constructor"
    },
    {
      "anonymous": false,
      "inputs": [
        {
          "indexed": false,
          "internalType": "address",
          "name": "sender",
          "type": "address"
        },
        {
          "indexed": false,
          "internalType": "address",
          "name": "buyer",
          "type": "address"
        }
      ],
      "name": "TicketBought",
      "type": "event"
    },
    {
      "anonymous": false,
      "inputs": [
        {
          "indexed": false,
          "internalType": "uint16",
          "name": "ticketId",
          "type": "uint16"
        },
        {
          "indexed": false,
          "internalType": "address",
          "name": "from",
          "type": "address"
        },
        {
          "indexed": false,
          "internalType": "address",
          "name": "to",
          "type": "address"
        }
      ],
      "name": "TicketTransfered",
      "type": "event"
    },
    {
      "inputs": [],
      "name": "buyTicket",
      "outputs": [
        {
          "internalType": "uint16",
          "name": "",
          "type": "uint16"
        }
      ],
      "stateMutability": "payable",
      "type": "function"
    },
    {
      "inputs": [
        {
          "internalType": "address",
          "name": "_user",
          "type": "address"
        }
      ],
      "name": "getTicketsForUser",
      "outputs": [
        {
          "internalType": "uint16[]",
          "name": "",
          "type": "uint16[]"
        }
      ],
      "stateMutability": "view",
      "type": "function"
    },
    {
      "inputs": [
        {
          "internalType": "uint16",
          "name": "_ticketId",
          "type": "uint16"
        }
      ],
      "name": "hasTicket",
      "outputs": [
        {
          "internalType": "bool",
          "name": "",
          "type": "bool"
        }
      ],
      "stateMutability": "view",
      "type": "function"
    },
    {
      "inputs": [],
      "name": "manager",
      "outputs": [
        {
          "internalType": "address",
          "name": "",
          "type": "address"
        }
      ],
      "stateMutability": "view",
      "type": "function"
    },
    {
      "inputs": [
        {
          "internalType": "uint256",
          "name": "_newPrice",
          "type": "uint256"
        }
      ],
      "name": "setTicketPrice",
      "outputs": [],
      "stateMutability": "nonpayable",
      "type": "function"
    },
    {
      "inputs": [],
      "name": "ticketPrice",
      "outputs": [
        {
          "internalType": "uint256",
          "name": "",
          "type": "uint256"
        }
      ],
      "stateMutability": "view",
      "type": "function"
    },
    {
      "inputs": [
        {
          "internalType": "uint16",
          "name": "",
          "type": "uint16"
        }
      ],
      "name": "tickets",
      "outputs": [
        {
          "internalType": "address",
          "name": "",
          "type": "address"
        }
      ],
      "stateMutability": "view",
      "type": "function"
    },
    {
      "inputs": [],
      "name": "ticketsAvailable",
      "outputs": [
        {
          "internalType": "uint16",
          "name": "",
          "type": "uint16"
        }
      ],
      "stateMutability": "view",
      "type": "function"
    },
    {
      "inputs": [],
      "name": "ticketsSold",
      "outputs": [
        {
          "internalType": "uint16",
          "name": "",
          "type": "uint16"
        }
      ],
      "stateMutability": "view",
      "type": "function"
    },
    {
      "inputs": [
        {
          "internalType": "uint16",
          "name": "_ticketId",
          "type": "uint16"
        },
        {
          "internalType": "address",
          "name": "_to",
          "type": "address"
        }
      ],
      "name": "transferTicket",
      "outputs": [],
      "stateMutability": "nonpayable",
      "type": "function"
    },
    {
      "inputs": [
        {
          "internalType": "address",
          "name": "",
          "type": "address"
        }
      ],
      "name": "userTicketsCount",
      "outputs": [
        {
          "internalType": "uint16",
          "name": "",
          "type": "uint16"
        }
      ],
      "stateMutability": "view",
      "type": "function"
    },
    {
      "inputs": [],
      "name": "withdrawFunds",
      "outputs": [],
      "stateMutability": "payable",
      "type": "function"
    }
  ],
  "bytecode": "0x60806040523480156200001157600080fd5b506040516200150e3803806200150e8339818101604052810190620000379190620000e9565b806000806101000a81548173ffffffffffffffffffffffffffffffffffffffff021916908373ffffffffffffffffffffffffffffffffffffffff1602179055508260018190555081600260006101000a81548161ffff021916908361ffff160217905550505050620001d9565b600081519050620000b5816200018b565b92915050565b600081519050620000cc81620001a5565b92915050565b600081519050620000e381620001bf565b92915050565b600080600060608486031215620000ff57600080fd5b60006200010f86828701620000d2565b93505060206200012286828701620000bb565b92505060406200013586828701620000a4565b9150509250925092565b60006200014c8262000161565b9050919050565b600061ffff82169050919050565b600073ffffffffffffffffffffffffffffffffffffffff82169050919050565b6000819050919050565b62000196816200013f565b8114620001a257600080fd5b50565b620001b08162000153565b8114620001bc57600080fd5b50565b620001ca8162000181565b8114620001d657600080fd5b50565b61132580620001e96000396000f3fe6080604052600436106100a75760003560e01c80638f15024f116100645780638f15024f14610189578063a21ac690146101b4578063ad8b280d146101f1578063c1648fbd1461022e578063cfc3ba7a1461026b578063edca914c146102a8576100a7565b80631209b1f6146100ac57806315981650146100d7578063182532341461010057806324600fc31461012b578063481c6a751461013557806370bb574c14610160575b600080fd5b3480156100b857600080fd5b506100c16102c6565b6040516100ce9190611039565b60405180910390f35b3480156100e357600080fd5b506100fe60048036038101906100f99190610d70565b6102cc565b005b34801561010c57600080fd5b5061011561032e565b6040516101229190610fe7565b60405180910390f35b610133610342565b005b34801561014157600080fd5b5061014a6103e3565b6040516101579190610ee6565b60405180910390f35b34801561016c57600080fd5b5061018760048036038101906101829190610d34565b610407565b005b34801561019557600080fd5b5061019e6106d4565b6040516101ab9190610fe7565b60405180910390f35b3480156101c057600080fd5b506101db60048036038101906101d69190610d0b565b6106e6565b6040516101e89190610f4c565b60405180910390f35b3480156101fd57600080fd5b5061021860048036038101906102139190610d0b565b610759565b6040516102259190610ee6565b60405180910390f35b34801561023a57600080fd5b5061025560048036038101906102509190610ce2565b61078c565b6040516102629190610f2a565b60405180910390f35b34801561027757600080fd5b50610292600480360381019061028d9190610ce2565b610970565b60405161029f9190610fe7565b60405180910390f35b6102b0610991565b6040516102bd9190610fe7565b60405180910390f35b60015481565b60008054906101000a900473ffffffffffffffffffffffffffffffffffffffff1673ffffffffffffffffffffffffffffffffffffffff163373ffffffffffffffffffffffffffffffffffffffff161461032457600080fd5b8060018190555050565b600260009054906101000a900461ffff1681565b60008054906101000a900473ffffffffffffffffffffffffffffffffffffffff1673ffffffffffffffffffffffffffffffffffffffff163373ffffffffffffffffffffffffffffffffffffffff161461039a57600080fd5b3373ffffffffffffffffffffffffffffffffffffffff166108fc479081150290604051600060405180830381858888f193505050501580156103e0573d6000803e3d6000fd5b50565b60008054906101000a900473ffffffffffffffffffffffffffffffffffffffff1681565b610410826106e6565b61044f576040517f08c379a000000000000000000000000000000000000000000000000000000000815260040161044690610f67565b60405180910390fd5b600073ffffffffffffffffffffffffffffffffffffffff168173ffffffffffffffffffffffffffffffffffffffff1614156104bf576040517f08c379a00000000000000000000000000000000000000000000000000000000081526004016104b690610f87565b60405180910390fd5b80600360008461ffff1661ffff16815260200190815260200160002060006101000a81548173ffffffffffffffffffffffffffffffffffffffff021916908373ffffffffffffffffffffffffffffffffffffffff16021790555061057e6001600460003373ffffffffffffffffffffffffffffffffffffffff1673ffffffffffffffffffffffffffffffffffffffff16815260200190815260200160002060009054906101000a900461ffff1661ffff16610bf490919063ffffffff16565b600460003373ffffffffffffffffffffffffffffffffffffffff1673ffffffffffffffffffffffffffffffffffffffff16815260200190815260200160002060006101000a81548161ffff021916908361ffff16021790555061063c6001600460008473ffffffffffffffffffffffffffffffffffffffff1673ffffffffffffffffffffffffffffffffffffffff16815260200190815260200160002060009054906101000a900461ffff1661ffff16610c4990919063ffffffff16565b600460008373ffffffffffffffffffffffffffffffffffffffff1673ffffffffffffffffffffffffffffffffffffffff16815260200190815260200160002060006101000a81548161ffff021916908361ffff1602179055507f0b5cbb4c2fb623063625396491ab4d021c6a651795393146b6fc6aba874d091e8233836040516106c893929190611002565b60405180910390a15050565b60028054906101000a900461ffff1681565b60003373ffffffffffffffffffffffffffffffffffffffff16600360008461ffff1661ffff16815260200190815260200160002060009054906101000a900473ffffffffffffffffffffffffffffffffffffffff1673ffffffffffffffffffffffffffffffffffffffff16149050919050565b60036020528060005260406000206000915054906101000a900473ffffffffffffffffffffffffffffffffffffffff1681565b60606000600460008473ffffffffffffffffffffffffffffffffffffffff1673ffffffffffffffffffffffffffffffffffffffff16815260200190815260200160002060009054906101000a900461ffff1661ffff1667ffffffffffffffff811115610821577f4e487b7100000000000000000000000000000000000000000000000000000000600052604160045260246000fd5b60405190808252806020026020018201604052801561084f5781602001602082028036833780820191505090505b5090506000805b60028054906101000a900461ffff1661ffff168161ffff161015610965578473ffffffffffffffffffffffffffffffffffffffff16600360008361ffff1661ffff16815260200190815260200160002060009054906101000a900473ffffffffffffffffffffffffffffffffffffffff1673ffffffffffffffffffffffffffffffffffffffff1614156109525780838361ffff1681518110610921577f4e487b7100000000000000000000000000000000000000000000000000000000600052603260045260246000fd5b602002602001019061ffff16908161ffff168152505061094f60018361ffff16610c4990919063ffffffff16565b91505b808061095d90611160565b915050610856565b508192505050919050565b60046020528060005260406000206000915054906101000a900461ffff1681565b60006001543410156109d8576040517f08c379a00000000000000000000000000000000000000000000000000000000081526004016109cf90610fa7565b60405180910390fd5b600260009054906101000a900461ffff1661ffff1660028054906101000a900461ffff1661ffff1610610a40576040517f08c379a0000000000000000000000000000000000000000000000000000000008152600401610a3790610fc7565b60405180910390fd5b336003600060028054906101000a900461ffff1661ffff1661ffff16815260200190815260200160002060006101000a81548173ffffffffffffffffffffffffffffffffffffffff021916908373ffffffffffffffffffffffffffffffffffffffff160217905550610b0d6001600460003373ffffffffffffffffffffffffffffffffffffffff1673ffffffffffffffffffffffffffffffffffffffff16815260200190815260200160002060009054906101000a900461ffff1661ffff16610c4990919063ffffffff16565b600460003373ffffffffffffffffffffffffffffffffffffffff1673ffffffffffffffffffffffffffffffffffffffff16815260200190815260200160002060006101000a81548161ffff021916908361ffff160217905550610b8c600160028054906101000a900461ffff1661ffff16610c4990919063ffffffff16565b6002806101000a81548161ffff021916908361ffff1602179055507fbbe04303da5ff3d6ed284879b5a6e97d5794095f5217aba09112c9dcb403b4683033604051610bd8929190610f01565b60405180910390a160028054906101000a900461ffff16905090565b60008261ffff168261ffff161115610c35577f4e487b7100000000000000000000000000000000000000000000000000000000600052600160045260246000fd5b8183610c4191906110d6565b905092915050565b6000808284610c58919061109e565b90508361ffff168161ffff161015610c99577f4e487b7100000000000000000000000000000000000000000000000000000000600052600160045260246000fd5b8091505092915050565b600081359050610cb2816112aa565b92915050565b600081359050610cc7816112c1565b92915050565b600081359050610cdc816112d8565b92915050565b600060208284031215610cf457600080fd5b6000610d0284828501610ca3565b91505092915050565b600060208284031215610d1d57600080fd5b6000610d2b84828501610cb8565b91505092915050565b60008060408385031215610d4757600080fd5b6000610d5585828601610cb8565b9250506020610d6685828601610ca3565b9150509250929050565b600060208284031215610d8257600080fd5b6000610d9084828501610ccd565b91505092915050565b6000610da58383610eb9565b60208301905092915050565b610dba8161110a565b82525050565b6000610dcb82611064565b610dd5818561107c565b9350610de083611054565b8060005b83811015610e11578151610df88882610d99565b9750610e038361106f565b925050600181019050610de4565b5085935050505092915050565b610e278161111c565b82525050565b6000610e3a601e8361108d565b9150610e45826111ba565b602082019050919050565b6000610e5d60288361108d565b9150610e68826111e3565b604082019050919050565b6000610e8060268361108d565b9150610e8b82611232565b604082019050919050565b6000610ea360148361108d565b9150610eae82611281565b602082019050919050565b610ec281611128565b82525050565b610ed181611128565b82525050565b610ee081611156565b82525050565b6000602082019050610efb6000830184610db1565b92915050565b6000604082019050610f166000830185610db1565b610f236020830184610db1565b9392505050565b60006020820190508181036000830152610f448184610dc0565b905092915050565b6000602082019050610f616000830184610e1e565b92915050565b60006020820190508181036000830152610f8081610e2d565b9050919050565b60006020820190508181036000830152610fa081610e50565b9050919050565b60006020820190508181036000830152610fc081610e73565b9050919050565b60006020820190508181036000830152610fe081610e96565b9050919050565b6000602082019050610ffc6000830184610ec8565b92915050565b60006060820190506110176000830186610ec8565b6110246020830185610db1565b6110316040830184610db1565b949350505050565b600060208201905061104e6000830184610ed7565b92915050565b6000819050602082019050919050565b600081519050919050565b6000602082019050919050565b600082825260208201905092915050565b600082825260208201905092915050565b60006110a982611128565b91506110b483611128565b92508261ffff038211156110cb576110ca61118b565b5b828201905092915050565b60006110e182611128565b91506110ec83611128565b9250828210156110ff576110fe61118b565b5b828203905092915050565b600061111582611136565b9050919050565b60008115159050919050565b600061ffff82169050919050565b600073ffffffffffffffffffffffffffffffffffffffff82169050919050565b6000819050919050565b600061116b82611128565b915061ffff8214156111805761117f61118b565b5b600182019050919050565b7f4e487b7100000000000000000000000000000000000000000000000000000000600052601160045260246000fd5b7f5469636b6574206e6f74206f776e6564206279207468652073656e6465720000600082015250565b7f5472616e7366657220746f20746865207a65726f2061646472657373206e6f7460008201527f20616c6c6f776564000000000000000000000000000000000000000000000000602082015250565b7f46756e64732073656e7420617265206c6f776572207468616e207469636b657460008201527f2070726963650000000000000000000000000000000000000000000000000000602082015250565b7f4e6f207469636b65747320617661696c61626c65000000000000000000000000600082015250565b6112b38161110a565b81146112be57600080fd5b50565b6112ca81611128565b81146112d557600080fd5b50565b6112e181611156565b81146112ec57600080fd5b5056fea2646970667358221220150a7bde7804ca8e8541276bd356991e2da63caee403e5cfb5ef683fef4687eb64736f6c63430008040033",
  "linkReferences": {},
  "deployedLinkReferences": {}
}