{
  "_format": "hh-sol-artifact-1",
  "contractName": "Event",
  "sourceName": "contracts/Event.sol",
  "abi": [
    {
      "inputs": [
        {
          "internalType": "uint256",
          "name": "_ticketPrice",
          "type": "uint256"
        },
        {
          "internalType": "uint16",
          "name": "_ticketsAvailable",
          "type": "uint16"
        },
        {
          "internalType": "address",
          "name": "_manager",
          "type": "address"
        }
      ],
      "stateMutability": "nonpayable",
      "type": "constructor"
    },
    {
      "anonymous": false,
      "inputs": [
        {
          "indexed": false,
          "internalType": "address",
          "name": "sender",
          "type": "address"
        },
        {
          "indexed": false,
          "internalType": "address",
          "name": "buyer",
          "type": "address"
        }
      ],
      "name": "TicketBought",
      "type": "event"
    },
    {
      "anonymous": false,
      "inputs": [
        {
          "indexed": false,
          "internalType": "uint16",
          "name": "ticketId",
          "type": "uint16"
        },
        {
          "indexed": false,
          "internalType": "address",
          "name": "from",
          "type": "address"
        },
        {
          "indexed": false,
          "internalType": "address",
          "name": "to",
          "type": "address"
        }
      ],
      "name": "TicketTransfered",
      "type": "event"
    },
    {
      "inputs": [],
      "name": "buyTicket",
      "outputs": [
        {
          "internalType": "uint16",
          "name": "",
          "type": "uint16"
        }
      ],
      "stateMutability": "payable",
      "type": "function"
    },
    {
      "inputs": [
        {
          "internalType": "address",
          "name": "_user",
          "type": "address"
        }
      ],
      "name": "getTicketsForUser",
      "outputs": [
        {
          "internalType": "uint16[]",
          "name": "",
          "type": "uint16[]"
        }
      ],
      "stateMutability": "view",
      "type": "function"
    },
    {
      "inputs": [
        {
          "internalType": "uint16",
          "name": "_ticketId",
          "type": "uint16"
        }
      ],
      "name": "hasTicket",
      "outputs": [
        {
          "internalType": "bool",
          "name": "",
          "type": "bool"
        }
      ],
      "stateMutability": "view",
      "type": "function"
    },
    {
      "inputs": [],
      "name": "manager",
      "outputs": [
        {
          "internalType": "address",
          "name": "",
          "type": "address"
        }
      ],
      "stateMutability": "view",
      "type": "function"
    },
    {
      "inputs": [
        {
          "internalType": "uint256",
          "name": "_newPrice",
          "type": "uint256"
        }
      ],
      "name": "setTicketPrice",
      "outputs": [],
      "stateMutability": "nonpayable",
      "type": "function"
    },
    {
      "inputs": [],
      "name": "ticketPrice",
      "outputs": [
        {
          "internalType": "uint256",
          "name": "",
          "type": "uint256"
        }
      ],
      "stateMutability": "view",
      "type": "function"
    },
    {
      "inputs": [
        {
          "internalType": "uint16",
          "name": "",
          "type": "uint16"
        }
      ],
      "name": "tickets",
      "outputs": [
        {
          "internalType": "address",
          "name": "",
          "type": "address"
        }
      ],
      "stateMutability": "view",
      "type": "function"
    },
    {
      "inputs": [],
      "name": "ticketsAvailable",
      "outputs": [
        {
          "internalType": "uint16",
          "name": "",
          "type": "uint16"
        }
      ],
      "stateMutability": "view",
      "type": "function"
    },
    {
      "inputs": [],
      "name": "ticketsSold",
      "outputs": [
        {
          "internalType": "uint16",
          "name": "",
          "type": "uint16"
        }
      ],
      "stateMutability": "view",
      "type": "function"
    },
    {
      "inputs": [
        {
          "internalType": "uint16",
          "name": "_ticketId",
          "type": "uint16"
        },
        {
          "internalType": "address",
          "name": "_to",
          "type": "address"
        }
      ],
      "name": "transferTicket",
      "outputs": [],
      "stateMutability": "nonpayable",
      "type": "function"
    },
    {
      "inputs": [
        {
          "internalType": "address",
          "name": "",
          "type": "address"
        }
      ],
      "name": "userTicketsCount",
      "outputs": [
        {
          "internalType": "uint16",
          "name": "",
          "type": "uint16"
        }
      ],
      "stateMutability": "view",
      "type": "function"
    },
    {
      "inputs": [],
      "name": "withdrawFunds",
      "outputs": [],
      "stateMutability": "payable",
      "type": "function"
    }
  ],
  "bytecode": "0x60806040523480156200001157600080fd5b50604051620012d5380380620012d58339818101604052810190620000379190620000e9565b806000806101000a81548173ffffffffffffffffffffffffffffffffffffffff021916908373ffffffffffffffffffffffffffffffffffffffff1602179055508260018190555081600260006101000a81548161ffff021916908361ffff160217905550505050620001d9565b600081519050620000b5816200018b565b92915050565b600081519050620000cc81620001a5565b92915050565b600081519050620000e381620001bf565b92915050565b600080600060608486031215620000ff57600080fd5b60006200010f86828701620000d2565b93505060206200012286828701620000bb565b92505060406200013586828701620000a4565b9150509250925092565b60006200014c8262000161565b9050919050565b600061ffff82169050919050565b600073ffffffffffffffffffffffffffffffffffffffff82169050919050565b6000819050919050565b62000196816200013f565b8114620001a257600080fd5b50565b620001b08162000153565b8114620001bc57600080fd5b50565b620001ca8162000181565b8114620001d657600080fd5b50565b6110ec80620001e96000396000f3fe6080604052600436106100a75760003560e01c80638f15024f116100645780638f15024f14610189578063a21ac690146101b4578063ad8b280d146101f1578063c1648fbd1461022e578063cfc3ba7a1461026b578063edca914c146102a8576100a7565b80631209b1f6146100ac57806315981650146100d7578063182532341461010057806324600fc31461012b578063481c6a751461013557806370bb574c14610160575b600080fd5b3480156100b857600080fd5b506100c16102c6565b6040516100ce9190610deb565b60405180910390f35b3480156100e357600080fd5b506100fe60048036038101906100f99190610b22565b6102cc565b005b34801561010c57600080fd5b5061011561032e565b6040516101229190610d99565b60405180910390f35b610133610342565b005b34801561014157600080fd5b5061014a6103e3565b6040516101579190610c98565b60405180910390f35b34801561016c57600080fd5b5061018760048036038101906101829190610ae6565b610407565b005b34801561019557600080fd5b5061019e610558565b6040516101ab9190610d99565b60405180910390f35b3480156101c057600080fd5b506101db60048036038101906101d69190610abd565b61056a565b6040516101e89190610cfe565b60405180910390f35b3480156101fd57600080fd5b5061021860048036038101906102139190610abd565b6105dd565b6040516102259190610c98565b60405180910390f35b34801561023a57600080fd5b5061025560048036038101906102509190610a94565b610610565b6040516102629190610cdc565b60405180910390f35b34801561027757600080fd5b50610292600480360381019061028d9190610a94565b6107e4565b60405161029f9190610d99565b60405180910390f35b6102b0610805565b6040516102bd9190610d99565b60405180910390f35b60015481565b60008054906101000a900473ffffffffffffffffffffffffffffffffffffffff1673ffffffffffffffffffffffffffffffffffffffff163373ffffffffffffffffffffffffffffffffffffffff161461032457600080fd5b8060018190555050565b600260009054906101000a900461ffff1681565b60008054906101000a900473ffffffffffffffffffffffffffffffffffffffff1673ffffffffffffffffffffffffffffffffffffffff163373ffffffffffffffffffffffffffffffffffffffff161461039a57600080fd5b3373ffffffffffffffffffffffffffffffffffffffff166108fc479081150290604051600060405180830381858888f193505050501580156103e0573d6000803e3d6000fd5b50565b60008054906101000a900473ffffffffffffffffffffffffffffffffffffffff1681565b6104108261056a565b61044f576040517f08c379a000000000000000000000000000000000000000000000000000000000815260040161044690610d19565b60405180910390fd5b600073ffffffffffffffffffffffffffffffffffffffff168173ffffffffffffffffffffffffffffffffffffffff1614156104bf576040517f08c379a00000000000000000000000000000000000000000000000000000000081526004016104b690610d39565b60405180910390fd5b80600360008461ffff1661ffff16815260200190815260200160002060006101000a81548173ffffffffffffffffffffffffffffffffffffffff021916908373ffffffffffffffffffffffffffffffffffffffff1602179055507f0b5cbb4c2fb623063625396491ab4d021c6a651795393146b6fc6aba874d091e82338360405161054c93929190610db4565b60405180910390a15050565b60028054906101000a900461ffff1681565b60003373ffffffffffffffffffffffffffffffffffffffff16600360008461ffff1661ffff16815260200190815260200160002060009054906101000a900473ffffffffffffffffffffffffffffffffffffffff1673ffffffffffffffffffffffffffffffffffffffff16149050919050565b60036020528060005260406000206000915054906101000a900473ffffffffffffffffffffffffffffffffffffffff1681565b60606000600460008473ffffffffffffffffffffffffffffffffffffffff1673ffffffffffffffffffffffffffffffffffffffff16815260200190815260200160002060009054906101000a900461ffff1661ffff1667ffffffffffffffff8111156106a5577f4e487b7100000000000000000000000000000000000000000000000000000000600052604160045260246000fd5b6040519080825280602002602001820160405280156106d35781602001602082028036833780820191505090505b5090506000805b60028054906101000a900461ffff1661ffff168161ffff1610156107d9578473ffffffffffffffffffffffffffffffffffffffff16600360008361ffff1661ffff16815260200190815260200160002060009054906101000a900473ffffffffffffffffffffffffffffffffffffffff1673ffffffffffffffffffffffffffffffffffffffff1614156107c657808383815181106107a1577f4e487b7100000000000000000000000000000000000000000000000000000000600052603260045260246000fd5b602002602001019061ffff16908161ffff168152505081806107c290610f09565b9250505b80806107d190610ede565b9150506106da565b508192505050919050565b60046020528060005260406000206000915054906101000a900461ffff1681565b600060015434101561084c576040517f08c379a000000000000000000000000000000000000000000000000000000000815260040161084390610d59565b60405180910390fd5b600260009054906101000a900461ffff1661ffff1660028054906101000a900461ffff1661ffff16106108b4576040517f08c379a00000000000000000000000000000000000000000000000000000000081526004016108ab90610d79565b60405180910390fd5b336003600060028054906101000a900461ffff1661ffff1661ffff16815260200190815260200160002060006101000a81548173ffffffffffffffffffffffffffffffffffffffff021916908373ffffffffffffffffffffffffffffffffffffffff1602179055506001600460003373ffffffffffffffffffffffffffffffffffffffff1673ffffffffffffffffffffffffffffffffffffffff16815260200190815260200160002060009054906101000a900461ffff166109769190610e50565b600460003373ffffffffffffffffffffffffffffffffffffffff1673ffffffffffffffffffffffffffffffffffffffff16815260200190815260200160002060006101000a81548161ffff021916908361ffff16021790555060016002808282829054906101000a900461ffff166109ee9190610e50565b92506101000a81548161ffff021916908361ffff1602179055507fbbe04303da5ff3d6ed284879b5a6e97d5794095f5217aba09112c9dcb403b4683033604051610a39929190610cb3565b60405180910390a160028054906101000a900461ffff16905090565b600081359050610a6481611071565b92915050565b600081359050610a7981611088565b92915050565b600081359050610a8e8161109f565b92915050565b600060208284031215610aa657600080fd5b6000610ab484828501610a55565b91505092915050565b600060208284031215610acf57600080fd5b6000610add84828501610a6a565b91505092915050565b60008060408385031215610af957600080fd5b6000610b0785828601610a6a565b9250506020610b1885828601610a55565b9150509250929050565b600060208284031215610b3457600080fd5b6000610b4284828501610a7f565b91505092915050565b6000610b578383610c6b565b60208301905092915050565b610b6c81610e88565b82525050565b6000610b7d82610e16565b610b878185610e2e565b9350610b9283610e06565b8060005b83811015610bc3578151610baa8882610b4b565b9750610bb583610e21565b925050600181019050610b96565b5085935050505092915050565b610bd981610e9a565b82525050565b6000610bec601e83610e3f565b9150610bf782610f81565b602082019050919050565b6000610c0f602883610e3f565b9150610c1a82610faa565b604082019050919050565b6000610c32602683610e3f565b9150610c3d82610ff9565b604082019050919050565b6000610c55601483610e3f565b9150610c6082611048565b602082019050919050565b610c7481610ea6565b82525050565b610c8381610ea6565b82525050565b610c9281610ed4565b82525050565b6000602082019050610cad6000830184610b63565b92915050565b6000604082019050610cc86000830185610b63565b610cd56020830184610b63565b9392505050565b60006020820190508181036000830152610cf68184610b72565b905092915050565b6000602082019050610d136000830184610bd0565b92915050565b60006020820190508181036000830152610d3281610bdf565b9050919050565b60006020820190508181036000830152610d5281610c02565b9050919050565b60006020820190508181036000830152610d7281610c25565b9050919050565b60006020820190508181036000830152610d9281610c48565b9050919050565b6000602082019050610dae6000830184610c7a565b92915050565b6000606082019050610dc96000830186610c7a565b610dd66020830185610b63565b610de36040830184610b63565b949350505050565b6000602082019050610e006000830184610c89565b92915050565b6000819050602082019050919050565b600081519050919050565b6000602082019050919050565b600082825260208201905092915050565b600082825260208201905092915050565b6000610e5b82610ea6565b9150610e6683610ea6565b92508261ffff03821115610e7d57610e7c610f52565b5b828201905092915050565b6000610e9382610eb4565b9050919050565b60008115159050919050565b600061ffff82169050919050565b600073ffffffffffffffffffffffffffffffffffffffff82169050919050565b6000819050919050565b6000610ee982610ea6565b915061ffff821415610efe57610efd610f52565b5b600182019050919050565b6000610f1482610ed4565b91507fffffffffffffffffffffffffffffffffffffffffffffffffffffffffffffffff821415610f4757610f46610f52565b5b600182019050919050565b7f4e487b7100000000000000000000000000000000000000000000000000000000600052601160045260246000fd5b7f5469636b6574206e6f74206f776e6564206279207468652073656e6465720000600082015250565b7f5472616e7366657220746f20746865207a65726f2061646472657373206e6f7460008201527f20616c6c6f776564000000000000000000000000000000000000000000000000602082015250565b7f46756e64732073656e7420617265206c6f776572207468616e207469636b657460008201527f2070726963650000000000000000000000000000000000000000000000000000602082015250565b7f4e6f207469636b65747320617661696c61626c65000000000000000000000000600082015250565b61107a81610e88565b811461108557600080fd5b50565b61109181610ea6565b811461109c57600080fd5b50565b6110a881610ed4565b81146110b357600080fd5b5056fea2646970667358221220f328da46edb38f6ee67620abd440147190ac446f29444a52ed631f76e11526a764736f6c63430008040033",
  "linkReferences": {},
  "deployedLinkReferences": {}
}