{
  "_format": "hh-sol-artifact-1",
  "contractName": "EventFactory",
  "sourceName": "contracts/EventFactory.sol",
  "abi": [
    {
      "inputs": [
        {
          "internalType": "uint256",
          "name": "_ticketPrice",
          "type": "uint256"
        },
        {
          "internalType": "uint16",
          "name": "_ticketsAvailable",
          "type": "uint16"
        }
      ],
      "name": "createEvent",
      "outputs": [
        {
          "internalType": "address",
          "name": "",
          "type": "address"
        }
      ],
      "stateMutability": "nonpayable",
      "type": "function"
    },
    {
      "inputs": [
        {
          "internalType": "uint256",
          "name": "",
          "type": "uint256"
        }
      ],
      "name": "events",
      "outputs": [
        {
          "internalType": "address",
          "name": "",
          "type": "address"
        }
      ],
      "stateMutability": "view",
      "type": "function"
    },
    {
      "inputs": [],
      "name": "eventsCount",
      "outputs": [
        {
          "internalType": "uint16",
          "name": "",
          "type": "uint16"
        }
      ],
      "stateMutability": "view",
      "type": "function"
    },
    {
      "inputs": [],
      "name": "getEvents",
      "outputs": [
        {
          "internalType": "address[]",
          "name": "",
          "type": "address[]"
        }
      ],
      "stateMutability": "view",
      "type": "function"
    }
  ],
  "bytecode": "0x608060405234801561001057600080fd5b506114a8806100206000396000f3fe608060405234801561001057600080fd5b506004361061004c5760003560e01c80630b7914301461005157806339e2e46f14610081578063404aa8f91461009f578063834ddb71146100bd575b600080fd5b61006b6004803603810190610066919061036d565b6100ed565b6040516100789190610484565b60405180910390f35b61008961012c565b60405161009691906104c1565b60405180910390f35b6100a7610140565b6040516100b4919061049f565b60405180910390f35b6100d760048036038101906100d29190610396565b6101ce565b6040516100e49190610484565b60405180910390f35b600081815481106100fd57600080fd5b906000526020600020016000915054906101000a900473ffffffffffffffffffffffffffffffffffffffff1681565b600160009054906101000a900461ffff1681565b606060008054806020026020016040519081016040528092919081815260200182805480156101c457602002820191906000526020600020905b8160009054906101000a900473ffffffffffffffffffffffffffffffffffffffff1673ffffffffffffffffffffffffffffffffffffffff168152602001906001019080831161017a575b5050505050905090565b6000808383336040516101e090610336565b6101ec939291906104dc565b604051809103906000f080158015610208573d6000803e3d6000fd5b5090506000819080600181540180825580915050600190039060005260206000200160009091909190916101000a81548173ffffffffffffffffffffffffffffffffffffffff021916908373ffffffffffffffffffffffffffffffffffffffff1602179055506001600081819054906101000a900461ffff168092919061028e906105ca565b91906101000a81548161ffff021916908361ffff16021790555050600060018060009054906101000a900461ffff166102c7919061054c565b61ffff1681548110610302577f4e487b7100000000000000000000000000000000000000000000000000000000600052603260045260246000fd5b9060005260206000200160009054906101000a900473ffffffffffffffffffffffffffffffffffffffff1691505092915050565b610e208061065383390190565b60008135905061035281610624565b92915050565b6000813590506103678161063b565b92915050565b60006020828403121561037f57600080fd5b600061038d84828501610358565b91505092915050565b600080604083850312156103a957600080fd5b60006103b785828601610358565b92505060206103c885828601610343565b9150509250929050565b60006103de83836103ea565b60208301905092915050565b6103f381610580565b82525050565b61040281610580565b82525050565b600061041382610523565b61041d818561053b565b935061042883610513565b8060005b8381101561045957815161044088826103d2565b975061044b8361052e565b92505060018101905061042c565b5085935050505092915050565b61046f81610592565b82525050565b61047e816105c0565b82525050565b600060208201905061049960008301846103f9565b92915050565b600060208201905081810360008301526104b98184610408565b905092915050565b60006020820190506104d66000830184610466565b92915050565b60006060820190506104f16000830186610475565b6104fe6020830185610466565b61050b60408301846103f9565b949350505050565b6000819050602082019050919050565b600081519050919050565b6000602082019050919050565b600082825260208201905092915050565b600061055782610592565b915061056283610592565b925082821015610575576105746105f5565b5b828203905092915050565b600061058b826105a0565b9050919050565b600061ffff82169050919050565b600073ffffffffffffffffffffffffffffffffffffffff82169050919050565b6000819050919050565b60006105d582610592565b915061ffff8214156105ea576105e96105f5565b5b600182019050919050565b7f4e487b7100000000000000000000000000000000000000000000000000000000600052601160045260246000fd5b61062d81610592565b811461063857600080fd5b50565b610644816105c0565b811461064f57600080fd5b5056fe60806040523480156200001157600080fd5b5060405162000e2038038062000e208339818101604052810190620000379190620000e9565b806000806101000a81548173ffffffffffffffffffffffffffffffffffffffff021916908373ffffffffffffffffffffffffffffffffffffffff1602179055508260018190555081600260006101000a81548161ffff021916908361ffff160217905550505050620001d9565b600081519050620000b5816200018b565b92915050565b600081519050620000cc81620001a5565b92915050565b600081519050620000e381620001bf565b92915050565b600080600060608486031215620000ff57600080fd5b60006200010f86828701620000d2565b93505060206200012286828701620000bb565b92505060406200013586828701620000a4565b9150509250925092565b60006200014c8262000161565b9050919050565b600061ffff82169050919050565b600073ffffffffffffffffffffffffffffffffffffffff82169050919050565b6000819050919050565b62000196816200013f565b8114620001a257600080fd5b50565b620001b08162000153565b8114620001bc57600080fd5b50565b620001ca8162000181565b8114620001d657600080fd5b50565b610c3780620001e96000396000f3fe6080604052600436106100915760003560e01c806370bb574c1161005957806370bb574c1461014a5780638f15024f14610173578063a21ac6901461019e578063ad8b280d146101db578063edca914c1461021857610091565b80631209b1f61461009657806315981650146100c157806318253234146100ea57806324600fc314610115578063481c6a751461011f575b600080fd5b3480156100a257600080fd5b506100ab610236565b6040516100b891906109e3565b60405180910390f35b3480156100cd57600080fd5b506100e860048036038101906100e391906107c1565b61023c565b005b3480156100f657600080fd5b506100ff61029e565b60405161010c9190610991565b60405180910390f35b61011d6102b2565b005b34801561012b57600080fd5b50610134610353565b60405161014191906108b2565b60405180910390f35b34801561015657600080fd5b50610171600480360381019061016c9190610785565b610377565b005b34801561017f57600080fd5b506101886104c8565b6040516101959190610991565b60405180910390f35b3480156101aa57600080fd5b506101c560048036038101906101c0919061075c565b6104da565b6040516101d291906108f6565b60405180910390f35b3480156101e757600080fd5b5061020260048036038101906101fd919061075c565b61054d565b60405161020f91906108b2565b60405180910390f35b610220610580565b60405161022d9190610991565b60405180910390f35b60015481565b60008054906101000a900473ffffffffffffffffffffffffffffffffffffffff1673ffffffffffffffffffffffffffffffffffffffff163373ffffffffffffffffffffffffffffffffffffffff161461029457600080fd5b8060018190555050565b600260009054906101000a900461ffff1681565b60008054906101000a900473ffffffffffffffffffffffffffffffffffffffff1673ffffffffffffffffffffffffffffffffffffffff163373ffffffffffffffffffffffffffffffffffffffff161461030a57600080fd5b3373ffffffffffffffffffffffffffffffffffffffff166108fc479081150290604051600060405180830381858888f19350505050158015610350573d6000803e3d6000fd5b50565b60008054906101000a900473ffffffffffffffffffffffffffffffffffffffff1681565b610380826104da565b6103bf576040517f08c379a00000000000000000000000000000000000000000000000000000000081526004016103b690610911565b60405180910390fd5b600073ffffffffffffffffffffffffffffffffffffffff168173ffffffffffffffffffffffffffffffffffffffff16141561042f576040517f08c379a000000000000000000000000000000000000000000000000000000000815260040161042690610931565b60405180910390fd5b80600360008461ffff1661ffff16815260200190815260200160002060006101000a81548173ffffffffffffffffffffffffffffffffffffffff021916908373ffffffffffffffffffffffffffffffffffffffff1602179055507f0b5cbb4c2fb623063625396491ab4d021c6a651795393146b6fc6aba874d091e8233836040516104bc939291906109ac565b60405180910390a15050565b60028054906101000a900461ffff1681565b60003373ffffffffffffffffffffffffffffffffffffffff16600360008461ffff1661ffff16815260200190815260200160002060009054906101000a900473ffffffffffffffffffffffffffffffffffffffff1673ffffffffffffffffffffffffffffffffffffffff16149050919050565b60036020528060005260406000206000915054906101000a900473ffffffffffffffffffffffffffffffffffffffff1681565b60006001543410156105c7576040517f08c379a00000000000000000000000000000000000000000000000000000000081526004016105be90610951565b60405180910390fd5b600260009054906101000a900461ffff1661ffff1660028054906101000a900461ffff1661ffff161061062f576040517f08c379a000000000000000000000000000000000000000000000000000000000815260040161062690610971565b60405180910390fd5b60016002808282829054906101000a900461ffff1661064e9190610a0f565b92506101000a81548161ffff021916908361ffff160217905550336003600060028054906101000a900461ffff1661ffff1661ffff16815260200190815260200160002060006101000a81548173ffffffffffffffffffffffffffffffffffffffff021916908373ffffffffffffffffffffffffffffffffffffffff1602179055507fbbe04303da5ff3d6ed284879b5a6e97d5794095f5217aba09112c9dcb403b46830336040516107019291906108cd565b60405180910390a160028054906101000a900461ffff16905090565b60008135905061072c81610bbc565b92915050565b60008135905061074181610bd3565b92915050565b60008135905061075681610bea565b92915050565b60006020828403121561076e57600080fd5b600061077c84828501610732565b91505092915050565b6000806040838503121561079857600080fd5b60006107a685828601610732565b92505060206107b78582860161071d565b9150509250929050565b6000602082840312156107d357600080fd5b60006107e184828501610747565b91505092915050565b6107f381610a47565b82525050565b61080281610a59565b82525050565b6000610815601e836109fe565b915061082082610acc565b602082019050919050565b60006108386028836109fe565b915061084382610af5565b604082019050919050565b600061085b6026836109fe565b915061086682610b44565b604082019050919050565b600061087e6014836109fe565b915061088982610b93565b602082019050919050565b61089d81610a65565b82525050565b6108ac81610a93565b82525050565b60006020820190506108c760008301846107ea565b92915050565b60006040820190506108e260008301856107ea565b6108ef60208301846107ea565b9392505050565b600060208201905061090b60008301846107f9565b92915050565b6000602082019050818103600083015261092a81610808565b9050919050565b6000602082019050818103600083015261094a8161082b565b9050919050565b6000602082019050818103600083015261096a8161084e565b9050919050565b6000602082019050818103600083015261098a81610871565b9050919050565b60006020820190506109a66000830184610894565b92915050565b60006060820190506109c16000830186610894565b6109ce60208301856107ea565b6109db60408301846107ea565b949350505050565b60006020820190506109f860008301846108a3565b92915050565b600082825260208201905092915050565b6000610a1a82610a65565b9150610a2583610a65565b92508261ffff03821115610a3c57610a3b610a9d565b5b828201905092915050565b6000610a5282610a73565b9050919050565b60008115159050919050565b600061ffff82169050919050565b600073ffffffffffffffffffffffffffffffffffffffff82169050919050565b6000819050919050565b7f4e487b7100000000000000000000000000000000000000000000000000000000600052601160045260246000fd5b7f5469636b6574206e6f74206f776e6564206279207468652073656e6465720000600082015250565b7f5472616e7366657220746f20746865207a65726f2061646472657373206e6f7460008201527f20616c6c6f776564000000000000000000000000000000000000000000000000602082015250565b7f46756e64732073656e7420617265206c6f776572207468616e207469636b657460008201527f2070726963650000000000000000000000000000000000000000000000000000602082015250565b7f4e6f207469636b65747320617661696c61626c65000000000000000000000000600082015250565b610bc581610a47565b8114610bd057600080fd5b50565b610bdc81610a65565b8114610be757600080fd5b50565b610bf381610a93565b8114610bfe57600080fd5b5056fea2646970667358221220ac45384f24ffdc182aaf40b12545004a33c567617eacf33464f2b786c7c26f6064736f6c63430008040033a26469706673582212202230e9b5167a51e72dd3726d2e10e4b378bff0a9c4d299cefaed9a2e87d1189b64736f6c63430008040033",
  "linkReferences": {},
  "deployedLinkReferences": {}
}