{
  "_format": "hh-sol-artifact-1",
  "contractName": "EventFactory",
  "sourceName": "contracts/EventFactory.sol",
  "abi": [
    {
      "inputs": [
        {
          "internalType": "string",
          "name": "_name",
          "type": "string"
        },
        {
          "internalType": "string",
          "name": "_venue",
          "type": "string"
        },
        {
          "internalType": "uint256",
          "name": "_date",
          "type": "uint256"
        },
        {
          "internalType": "uint256",
          "name": "_ticketPrice",
          "type": "uint256"
        },
        {
          "internalType": "uint16",
          "name": "_ticketsAvailable",
          "type": "uint16"
        }
      ],
      "name": "createEvent",
      "outputs": [],
      "stateMutability": "nonpayable",
      "type": "function"
    },
    {
      "inputs": [
        {
          "internalType": "uint256",
          "name": "",
          "type": "uint256"
        }
      ],
      "name": "events",
      "outputs": [
        {
          "internalType": "address",
          "name": "",
          "type": "address"
        }
      ],
      "stateMutability": "view",
      "type": "function"
    },
    {
      "inputs": [],
      "name": "getEvents",
      "outputs": [
        {
          "internalType": "address[]",
          "name": "",
          "type": "address[]"
        }
      ],
      "stateMutability": "view",
      "type": "function"
    }
  ],
  "bytecode": "0x608060405234801561001057600080fd5b50611be6806100206000396000f3fe60806040523480156200001157600080fd5b5060043610620000465760003560e01c80630b791430146200004b578063404aa8f9146200008157806352aa4b1d14620000a3575b600080fd5b620000696004803603810190620000639190620003a5565b620000c3565b604051620000789190620004da565b60405180910390f35b6200008b62000103565b6040516200009a9190620004f7565b60405180910390f35b620000c16004803603810190620000bb9190620002f1565b62000193565b005b60008181548110620000d457600080fd5b906000526020600020016000915054906101000a900473ffffffffffffffffffffffffffffffffffffffff1681565b606060008054806020026020016040519081016040528092919081815260200182805480156200018957602002820191906000526020600020905b8160009054906101000a900473ffffffffffffffffffffffffffffffffffffffff1673ffffffffffffffffffffffffffffffffffffffff16815260200190600101908083116200013e575b5050505050905090565b60008585858585604051620001a89062000243565b620001b89594939291906200051b565b604051809103906000f080158015620001d5573d6000803e3d6000fd5b5090506000819080600181540180825580915050600190039060005260206000200160009091909190916101000a81548173ffffffffffffffffffffffffffffffffffffffff021916908373ffffffffffffffffffffffffffffffffffffffff160217905550505050505050565b61143b806200077683390190565b6000620002686200026284620005af565b62000586565b9050828152602081018484840111156200028157600080fd5b6200028e84828562000686565b509392505050565b600082601f830112620002a857600080fd5b8135620002ba84826020860162000251565b91505092915050565b600081359050620002d48162000741565b92915050565b600081359050620002eb816200075b565b92915050565b600080600080600060a086880312156200030a57600080fd5b600086013567ffffffffffffffff8111156200032557600080fd5b620003338882890162000296565b955050602086013567ffffffffffffffff8111156200035157600080fd5b6200035f8882890162000296565b94505060406200037288828901620002da565b93505060606200038588828901620002da565b92505060806200039888828901620002c3565b9150509295509295909350565b600060208284031215620003b857600080fd5b6000620003c884828501620002da565b91505092915050565b6000620003df8383620003eb565b60208301905092915050565b620003f6816200063a565b82525050565b62000407816200063a565b82525050565b60006200041a82620005f5565b62000426818562000618565b93506200043383620005e5565b8060005b838110156200046a5781516200044e8882620003d1565b97506200045b836200060b565b92505060018101905062000437565b5085935050505092915050565b6000620004848262000600565b62000490818562000629565b9350620004a281856020860162000695565b620004ad8162000730565b840191505092915050565b620004c3816200064e565b82525050565b620004d4816200067c565b82525050565b6000602082019050620004f16000830184620003fc565b92915050565b600060208201905081810360008301526200051381846200040d565b905092915050565b600060a082019050818103600083015262000537818862000477565b905081810360208301526200054d818762000477565b90506200055e6040830186620004c9565b6200056d6060830185620004c9565b6200057c6080830184620004b8565b9695505050505050565b600062000592620005a5565b9050620005a08282620006cb565b919050565b6000604051905090565b600067ffffffffffffffff821115620005cd57620005cc62000701565b5b620005d88262000730565b9050602081019050919050565b6000819050602082019050919050565b600081519050919050565b600081519050919050565b6000602082019050919050565b600082825260208201905092915050565b600082825260208201905092915050565b600062000647826200065c565b9050919050565b600061ffff82169050919050565b600073ffffffffffffffffffffffffffffffffffffffff82169050919050565b6000819050919050565b82818337600083830152505050565b60005b83811015620006b557808201518184015260208101905062000698565b83811115620006c5576000848401525b50505050565b620006d68262000730565b810181811067ffffffffffffffff82111715620006f857620006f762000701565b5b80604052505050565b7f4e487b7100000000000000000000000000000000000000000000000000000000600052604160045260246000fd5b6000601f19601f8301169050919050565b6200074c816200064e565b81146200075857600080fd5b50565b62000766816200067c565b81146200077257600080fd5b5056fe60806040523480156200001157600080fd5b506040516200143b3803806200143b83398181016040528101906200003791906200029c565b336000806101000a81548173ffffffffffffffffffffffffffffffffffffffff021916908373ffffffffffffffffffffffffffffffffffffffff16021790555084600190805190602001906200008f9291906200014c565b50826002819055508360039080519060200190620000af9291906200014c565b50620000c182620000e960201b60201c565b80600560006101000a81548161ffff021916908361ffff16021790555050505050506200050c565b60008054906101000a900473ffffffffffffffffffffffffffffffffffffffff1673ffffffffffffffffffffffffffffffffffffffff163373ffffffffffffffffffffffffffffffffffffffff16146200014257600080fd5b8060048190555050565b8280546200015a90620003fd565b90600052602060002090601f0160209004810192826200017e5760008555620001ca565b82601f106200019957805160ff1916838001178555620001ca565b82800160010185558215620001ca579182015b82811115620001c9578251825591602001919060010190620001ac565b5b509050620001d99190620001dd565b5090565b5b80821115620001f8576000816000905550600101620001de565b5090565b6000620002136200020d8462000379565b62000350565b9050828152602081018484840111156200022c57600080fd5b62000239848285620003c7565b509392505050565b600082601f8301126200025357600080fd5b815162000265848260208601620001fc565b91505092915050565b6000815190506200027f81620004d8565b92915050565b6000815190506200029681620004f2565b92915050565b600080600080600060a08688031215620002b557600080fd5b600086015167ffffffffffffffff811115620002d057600080fd5b620002de8882890162000241565b955050602086015167ffffffffffffffff811115620002fc57600080fd5b6200030a8882890162000241565b94505060406200031d8882890162000285565b9350506060620003308882890162000285565b925050608062000343888289016200026e565b9150509295509295909350565b60006200035c6200036f565b90506200036a828262000433565b919050565b6000604051905090565b600067ffffffffffffffff82111562000397576200039662000498565b5b620003a282620004c7565b9050602081019050919050565b600061ffff82169050919050565b6000819050919050565b60005b83811015620003e7578082015181840152602081019050620003ca565b83811115620003f7576000848401525b50505050565b600060028204905060018216806200041657607f821691505b602082108114156200042d576200042c62000469565b5b50919050565b6200043e82620004c7565b810181811067ffffffffffffffff8211171562000460576200045f62000498565b5b80604052505050565b7f4e487b7100000000000000000000000000000000000000000000000000000000600052602260045260246000fd5b7f4e487b7100000000000000000000000000000000000000000000000000000000600052604160045260246000fd5b6000601f19601f8301169050919050565b620004e381620003af565b8114620004ef57600080fd5b50565b620004fd81620003bd565b81146200050957600080fd5b50565b610f1f806200051c6000396000f3fe6080604052600436106100c25760003560e01c8063481c6a751161007f578063a21ac69011610059578063a21ac69014610225578063a270a73714610262578063ad8b280d1461028d578063edca914c146102ca576100c2565b8063481c6a75146101a657806370bb574c146101d15780638f15024f146101fa576100c2565b806306fdde03146100c75780631209b1f6146100f2578063159816501461011d578063182532341461014657806324600fc314610171578063323046b11461017b575b600080fd5b3480156100d357600080fd5b506100dc6102e8565b6040516100e99190610b27565b60405180910390f35b3480156100fe57600080fd5b50610107610376565b6040516101149190610c1b565b60405180910390f35b34801561012957600080fd5b50610144600480360381019061013f919061099e565b61037c565b005b34801561015257600080fd5b5061015b6103de565b6040516101689190610bc9565b60405180910390f35b6101796103f2565b005b34801561018757600080fd5b50610190610493565b60405161019d9190610c1b565b60405180910390f35b3480156101b257600080fd5b506101bb610499565b6040516101c89190610ac8565b60405180910390f35b3480156101dd57600080fd5b506101f860048036038101906101f39190610962565b6104bd565b005b34801561020657600080fd5b5061020f61060e565b60405161021c9190610bc9565b60405180910390f35b34801561023157600080fd5b5061024c60048036038101906102479190610939565b610622565b6040516102599190610b0c565b60405180910390f35b34801561026e57600080fd5b50610277610695565b6040516102849190610b27565b60405180910390f35b34801561029957600080fd5b506102b460048036038101906102af9190610939565b610723565b6040516102c19190610ac8565b60405180910390f35b6102d2610756565b6040516102df9190610bc9565b60405180910390f35b600180546102f590610d13565b80601f016020809104026020016040519081016040528092919081815260200182805461032190610d13565b801561036e5780601f106103435761010080835404028352916020019161036e565b820191906000526020600020905b81548152906001019060200180831161035157829003601f168201915b505050505081565b60045481565b60008054906101000a900473ffffffffffffffffffffffffffffffffffffffff1673ffffffffffffffffffffffffffffffffffffffff163373ffffffffffffffffffffffffffffffffffffffff16146103d457600080fd5b8060048190555050565b600560009054906101000a900461ffff1681565b60008054906101000a900473ffffffffffffffffffffffffffffffffffffffff1673ffffffffffffffffffffffffffffffffffffffff163373ffffffffffffffffffffffffffffffffffffffff161461044a57600080fd5b3373ffffffffffffffffffffffffffffffffffffffff166108fc479081150290604051600060405180830381858888f19350505050158015610490573d6000803e3d6000fd5b50565b60025481565b60008054906101000a900473ffffffffffffffffffffffffffffffffffffffff1681565b6104c682610622565b610505576040517f08c379a00000000000000000000000000000000000000000000000000000000081526004016104fc90610b49565b60405180910390fd5b600073ffffffffffffffffffffffffffffffffffffffff168173ffffffffffffffffffffffffffffffffffffffff161415610575576040517f08c379a000000000000000000000000000000000000000000000000000000000815260040161056c90610b69565b60405180910390fd5b80600660008461ffff1661ffff16815260200190815260200160002060006101000a81548173ffffffffffffffffffffffffffffffffffffffff021916908373ffffffffffffffffffffffffffffffffffffffff1602179055507f0b5cbb4c2fb623063625396491ab4d021c6a651795393146b6fc6aba874d091e82338360405161060293929190610be4565b60405180910390a15050565b600560029054906101000a900461ffff1681565b60003373ffffffffffffffffffffffffffffffffffffffff16600660008461ffff1661ffff16815260200190815260200160002060009054906101000a900473ffffffffffffffffffffffffffffffffffffffff1673ffffffffffffffffffffffffffffffffffffffff16149050919050565b600380546106a290610d13565b80601f01602080910402602001604051908101604052809291908181526020018280546106ce90610d13565b801561071b5780601f106106f05761010080835404028352916020019161071b565b820191906000526020600020905b8154815290600101906020018083116106fe57829003601f168201915b505050505081565b60066020528060005260406000206000915054906101000a900473ffffffffffffffffffffffffffffffffffffffff1681565b600060045434101561079d576040517f08c379a000000000000000000000000000000000000000000000000000000000815260040161079490610b89565b60405180910390fd5b600560009054906101000a900461ffff1661ffff16600560029054906101000a900461ffff1661ffff1610610807576040517f08c379a00000000000000000000000000000000000000000000000000000000081526004016107fe90610ba9565b60405180910390fd5b6001600560028282829054906101000a900461ffff166108279190610c52565b92506101000a81548161ffff021916908361ffff1602179055503360066000600560029054906101000a900461ffff1661ffff1661ffff16815260200190815260200160002060006101000a81548173ffffffffffffffffffffffffffffffffffffffff021916908373ffffffffffffffffffffffffffffffffffffffff1602179055507fbbe04303da5ff3d6ed284879b5a6e97d5794095f5217aba09112c9dcb403b46830336040516108dc929190610ae3565b60405180910390a1600560029054906101000a900461ffff16905090565b60008135905061090981610ea4565b92915050565b60008135905061091e81610ebb565b92915050565b60008135905061093381610ed2565b92915050565b60006020828403121561094b57600080fd5b60006109598482850161090f565b91505092915050565b6000806040838503121561097557600080fd5b60006109838582860161090f565b9250506020610994858286016108fa565b9150509250929050565b6000602082840312156109b057600080fd5b60006109be84828501610924565b91505092915050565b6109d081610c8a565b82525050565b6109df81610c9c565b82525050565b60006109f082610c36565b6109fa8185610c41565b9350610a0a818560208601610ce0565b610a1381610da3565b840191505092915050565b6000610a2b601e83610c41565b9150610a3682610db4565b602082019050919050565b6000610a4e602883610c41565b9150610a5982610ddd565b604082019050919050565b6000610a71602683610c41565b9150610a7c82610e2c565b604082019050919050565b6000610a94601483610c41565b9150610a9f82610e7b565b602082019050919050565b610ab381610ca8565b82525050565b610ac281610cd6565b82525050565b6000602082019050610add60008301846109c7565b92915050565b6000604082019050610af860008301856109c7565b610b0560208301846109c7565b9392505050565b6000602082019050610b2160008301846109d6565b92915050565b60006020820190508181036000830152610b4181846109e5565b905092915050565b60006020820190508181036000830152610b6281610a1e565b9050919050565b60006020820190508181036000830152610b8281610a41565b9050919050565b60006020820190508181036000830152610ba281610a64565b9050919050565b60006020820190508181036000830152610bc281610a87565b9050919050565b6000602082019050610bde6000830184610aaa565b92915050565b6000606082019050610bf96000830186610aaa565b610c0660208301856109c7565b610c1360408301846109c7565b949350505050565b6000602082019050610c306000830184610ab9565b92915050565b600081519050919050565b600082825260208201905092915050565b6000610c5d82610ca8565b9150610c6883610ca8565b92508261ffff03821115610c7f57610c7e610d45565b5b828201905092915050565b6000610c9582610cb6565b9050919050565b60008115159050919050565b600061ffff82169050919050565b600073ffffffffffffffffffffffffffffffffffffffff82169050919050565b6000819050919050565b60005b83811015610cfe578082015181840152602081019050610ce3565b83811115610d0d576000848401525b50505050565b60006002820490506001821680610d2b57607f821691505b60208210811415610d3f57610d3e610d74565b5b50919050565b7f4e487b7100000000000000000000000000000000000000000000000000000000600052601160045260246000fd5b7f4e487b7100000000000000000000000000000000000000000000000000000000600052602260045260246000fd5b6000601f19601f8301169050919050565b7f5469636b6574206e6f74206f776e6564206279207468652073656e6465720000600082015250565b7f5472616e7366657220746f20746865207a65726f2061646472657373206e6f7460008201527f20616c6c6f776564000000000000000000000000000000000000000000000000602082015250565b7f46756e64732073656e7420617265206c6f776572207468616e207469636b657460008201527f2070726963650000000000000000000000000000000000000000000000000000602082015250565b7f4e6f207469636b65747320617661696c61626c65000000000000000000000000600082015250565b610ead81610c8a565b8114610eb857600080fd5b50565b610ec481610ca8565b8114610ecf57600080fd5b50565b610edb81610cd6565b8114610ee657600080fd5b5056fea26469706673582212200aeb1e6a1c8c1d56f602c9fe4a2af25decdf0acf5d114d5445bb7c7b390db20e64736f6c63430008040033a264697066735822122099f76dcd5435113de07fbea00fcd1ae638ddf311bd485e4e9d800a122a7ff90364736f6c63430008040033",
  "linkReferences": {},
  "deployedLinkReferences": {}
}